:020000040000fa
:080000000002040000000000f2
:020000040000fa
:10000800000000008849000098490000a849000045
:10001800b8490000c84900000000000000000000c6
:1000280000000000000000000000000096340000fe
:10003800000000000000000000000000563400002e
:100048006e470000000000000000000000000000f3
:1000580000000000744900000000000000000000db
:100068000000000000000000000000000000000088
:100078000000000000000000000000000000000078
:100088000000000000000000000000000000000068
:100098000000000000000000383a000000000000e6
:1000a8000000000000000000000000000000000048
:1000b8000000000000000000000000000000000038
:1000c8000000000000000000000000000000000028
:1000d8000000000000000000000000000000000018
:1000e8000000000000000000000000000000000008
:1000f80000000000000000000000000000000000f8
:1001080000000000000000000000000000000000e7
:1001180000000000000000000000000000000000d7
:1001280000000000000000000000000000000000c7
:1001380000000000000000000000000000000000b7
:1001480000000000000000000000000000000000a7
:100158000000000000000000000000000000000097
:100168000000000000000000000000000000000087
:100178000000000000000000000000000000000077
:100188000000000000000000000000000000000067
:100198000000000000000000000000000000000057
:1001a8000000000000000000000000000000000047
:1001b8000000000000000000000000000000000037
:1001c8000000000000000000000000000000000027
:1001d8000000000000000000000000000000000017
:1001e8000000000000000000000000000000000007
:0801f8000000000000000000ff
:020000040000fa
:1002080000000000da490000ea490000fa4900004d
:100218000a4a00001a4a000000000000000000001e
:1002280000000000000000000000000096340000fc
:10023800000000000000000000000000563400002c
:100248006e470000000000000000000000000000f1
:1002580000000000744900000000000000000000d9
:100268000000000000000000000000000000000086
:100278000000000000000000000000000000000076
:100288000000000000000000000000000000000066
:100298000000000000000000383a000000000000e4
:1002a8000000000000000000000000000000000046
:1002b8000000000000000000000000000000000036
:1002c8000000000000000000000000000000000026
:1002d8000000000000000000000000000000000016
:1002e8000000000000000000000000000000000006
:1002f80000000000000000000000000000000000f6
:1003080000000000000000000000000000000000e5
:1003180000000000000000000000000000000000d5
:1003280000000000000000000000000000000000c5
:1003380000000000000000000000000000000000b5
:1003480000000000000000000000000000000000a5
:100358000000000000000000000000000000000095
:100368000000000000000000000000000000000085
:100378000000000000000000000000000000000075
:100388000000000000000000000000000000000065
:100398000000000000000000000000000000000055
:1003a8000000000000000000000000000000000045
:1003b8000000000000000000000000000000000035
:1003c8000000000000000000000000000000000025
:1003d8000000000000000000000000000000000015
:1003e8000000000000000000000000000000000005
:0803f8000000000000000000fd
:020000040000fa
:100400002f0e21000eff27000e01880000000000c3
:10041000000020000000e000020032000001200087
:10042000200288000c000700201a24000100200090
:1004300011000700000020000000e0000200320070
:100440000000020000000000cc2c020000000000b0
:100450000040da000000fe004440a9002006200011
:100460000000e0000300320000002000a00188002e
:100470004440a80000000600910188008000780038
:100480000000eb0015003700e280400032a0b4000d
:100490009101ba00e280400032a0b4009102ba009b
:1004a000e280400032a0b4000002eb00472bde00e7
:1004b000f507b200602ce10004003a000059eb009f
:1004c0008301e900fdff3e00040037006128e100e0
:1004d000010032000082eb00040007001101ba00a5
:1004e0000200e000e8ff3a00000006003159ba00bf
:1004f0008301e9000c0032002159ba008301e900b0
:10050000080032000400e00003003a00e2804000ee
:1005100032a0b400f5ff370011d9ba008301e90019
:10052000faff3a008100e800e180400032a0b40008
:10053000000006001004b100070035009001b10072
:10054000040034007000b100030035009001b100d8
:1005500001003c0010000500000005006900e100fa
:10056000040035006d00e100030034000002b1001a
:100570000100320000000500100005001004b10069
:10058000030035009001b10001003c00100005009f
:1005900000000500800078001104b1000300350060
:1005a0009101b10001003c000050a00000000600d5
:1005b0000a00fa000000e00029003a00638680008b
:1005c000a34190000304e00025003a00008780006a
:1005d000e10f500006003200802320006523200038
:1005e00024232000032320000000e00004003a0040
:1005f00080222000652220002422200003222000e7
:10060000060028001303630003003a000608780080
:100610000000280093097000020078000a003700eb
:100620008301e9001408a30002003a000300e0007f
:10063000fbff3a001408a300070032009501780080
:10064000835878000000e9000000e000020032005a
:10065000030a2000f3ff37000000510008003700b4
:1006600023002000b3bf9f00c0bf9f00d1bf9f00e9
:10067000e2bf9f006a805700f81107006fb897002b
:100680000080fa00000006000a00fa00e20f5000a5
:1006900020003e0000878000e10f5000060032007d
:1006a0008023200045232000232320000423200052
:1006b0000000e00004003a008022200045222000d3
:1006c00023222000042220000600280014036300d7
:1006d00003003a000608780000002800140a7000a1
:1006e00013a8a30001003a0013a0a00002007800a4
:1006f000050037001388a300feff32003102fb0023
:10070000840a78000000e9000000e000f9ff3a00e8
:100710000800370033002000b3bf9f00c0bf9f0018
:10072000d1bf9f00e2bf9f006a805700cd11070034
:100730006fb99700020078000080fa000000060000
:100740002800fa00889fbe008a9fbe008c9fbe00d2
:1007500007067800878669000c003b0003047800d8
:100760008704780008f0a10009f0a100840f500070
:10077000858f5800860f5900890f5c0003003300f5
:100780000cf0a20001003a000cf0a100ff010700ec
:100790006400e1005f003200780147006408e10076
:1007a000610032006c014700748557003200be00c2
:1007b0001201be003a04be001a05be001e039000de
:1007c000be0a90008503530006003d000004fd00b2
:1007d0008104fd000205fd008305fd008703ea009a
:1007e000050378000df8a300040032006004140033
:1007f000e0841c0060051d00e0851d006022b8003b
:100800007d0320000d38e1008006eb000b0039006d
:100810004433dd00f300b200830173003900370078
:10082000848272000d027800e10664008b85d1009d
:100830000a85d3008984d3000884d3008703e900a4
:10084000f7ff3b0008004000898048000a0149008a
:100850008b81490004003b0060001000e08018001c
:1008600060011900e08119000358a300090032005b
:100870008d82720084827200610260008301d10067
:100880000281d3008180d3000080d3000603e800fa
:100890001b0037000348a30017003a000600e000e1
:1008a000170034000603e9000d00a3000000480013
:1008b0008180480002014900838149000348a30068
:1008c0000f003a000600e000090034000603e900ca
:1008d00000004000818048000201490083814900f6
:1008e00001003a000003eb000348a300f5ff3200cb
:1008f0006022b800020037008482720061826600c4
:100900006401070003f0a1000cf0a70003f0a000b1
:10091000b2013700640147006408e10002003a00b8
:100920000df8a300aa013a003200be001201be0079
:10093000aa01370004002000000037000800fa0078
:10094000889fbe008a9fbe008c9fbe000406780070
:1009500003f0a7000cf0a0000004be000205be00da
:10096000780107006420e100af003e00ab003200d8
:100970000bf0a1000800be000a01be0007ff230023
:10098000060020006022b800e3000700a3003c003e
:100990000800be000a01be0067e42300e6092a0041
:1009a000f5672600d4bc2300d60007000800be006f
:1009b0000a01be007d00350007fe2300060020006e
:1009c0000500200004002000d300070008003c00c0
:1009d0000800be000a01be000802be000a03be00f5
:1009e0002c020700009fbe000297be0016003700d1
:1009f0000c10a20003ff2300020020006000b800da
:100a00000802be000a03be009603070007fe23008b
:100a10000600200005002000040020001d02070041
:100a2000009fbe000297be003e03070007002c0097
:100a30000600200005002000040020001502070029
:100a40000004be000205be003e00be002e01be0036
:100a500077032c00862e2d0095ef2600f4612800e8
:100a600037ff07003e02be002e03be00090207004a
:100a700027062400c6e72d009565290004c721003c
:100a80002fff07003e02be002e03be00010207003a
:100a900077072c00e6dc2d0065c52f0084842a0032
:100aa00027ff07003e02be002e03be00f90107002b
:100ab000a7072400f6242100e501210034842b003f
:100ac0001fff07003e02be002e03be00f10107001b
:100ad00047062c00066c2800b5e22300c47c2800e1
:100ae00017ff0700809fbe00829fbe0063fe2b00a1
:100af000d2bb2400615e2b0050e621003e02be0006
:100b00002e03be00e30107004702240076e1240023
:100b1000c54e26007492230009ff07003e02be0066
:100b20002e03be00db01070037042c00c6822d0017
:100b3000659a2a00f4a92d0001ff07003e02be00bd
:100b40002e03be00d3010700c704240076aa2900a3
:100b5000a5602300a4482d00f9fe07003e02be0058
:100b60002e03be00cb010700b7032c0056e525007d
:100b7000a5832a0024a62000f1fe07003e02be0045
:100b80002e03be00c30107004f03be004f02be008c
:100b9000660007000802be000a03be00bd01070090
:100ba0000802be000a03be00e5fe07000c00a70015
:100bb0000900370097ff2300b61f22004544250097
:100bc00084d122000c10a700ddfe07000cf0a70066
:100bd00003f0a200100037000cf0a700020037005d
:100be00003f0a2000600370097002400b61f220081
:100bf0004544250084d122000c10a60005003700d2
:100c000097ff2300b61f22004544250084d122000f
:100c10000c10a700cafe0700f0003700f3ff270002
:100c2000f2ff2f006110b9000330a0001402200071
:100c300074428800f8ff37000000fa00889fbe0069
:100c40008a9fbe008c9fbe000404be000605be0045
:100c5000bc000700040678000c78a30020003a00ce
:100c60000800fd008900fd000a01fd008b01fd0068
:100c7000b4000700840678000d78a30018003a003d
:100c80000d0666006460e100190032006160e10059
:100c9000170032000002be000203be000a01be00bf
:100ca0000800be00070478002000070003f0a10040
:100cb0001903070008f0a6000600370003f0a200a1
:100cc00097002400b61f22004544250084d122004d
:100cd0009bfe07000bf0a70003f0a200bf00370047
:100ce00018022000784288000330a000bb003700c3
:100cf0001802200078428800b50037000002eb009f
:100d0000db0137008f1fd100fd0307008f87e9004b
:100d10000000e00000000600809feb00f8030700e1
:100d20008f87e9000000e000000006002800fa00bc
:100d3000889fbe008a9fbe008c9fbe0003866b000a
:100d4000920007006400e100440032006408e10002
:100d50004a0032006100e100460032006108e10013
:100d600049003200ec0647006000b8003d02be00ba
:100d70003d03be00f48657006011b8003d04be007c
:100d80003d05be007d0320000b0037000000a000e1
:100d90008d06e900130032000402420085824a00f9
:100da00006034b0087834b00000040008180480011
:100db00002014900838149000802520089825a00d9
:100dc0000a035b008b835b00f0ff3b0008024200dc
:100dd00089824a000a034b008b834b008d06e90091
:100de000edff3a008482720086827200f707b2003b
:100df0008782720001003200150020001e0490005e
:100e00003e0b900006035400e63fb0000368a300c9
:100e1000070032000000a7000500a0008301d100f8
:100e20000281d3008180d3000080d3000603e80054
:100e30008301d1000281d3008180d3000080d300e0
:100e40000002eb000482d2001200070003f0a100b0
:100e50000cf0a70003f0a000600037006402470018
:100e60006408e1005a0032003400be003401be00c4
:100e7000f6ff37006108e100550032006011b8004c
:100e80006000b800f1ff370003ff270002002000d8
:100e9000fbff370018002000570020000804530013
:100ea0000d003d000600200097fc2f000740e100e8
:100eb0001e00340084827200610260008301d10050
:100ec0000281d3008180d3000080d3000804e800b1
:100ed000f8ff3a0047002000610460000504740038
:100ee000040464000d00320061004000e08048000e
:100ef00060014900e081490003b8a5000700320005
:100f00000603e8006538e10004003a008301d100df
:100f10000281d3008180d3000080d300f87f2000bd
:100f20000830e10003003500080378006000b800d5
:100f30006011b8004433dd00f300b2008301730098
:100f40000000060005ff270005826100070032004f
:100f50000428e1000100320024000500060007001b
:100f600001003a00440005000408050002000700e3
:100f7000f9ff3a00140005006f82610081027000e1
:100f800085027100850272000000060068044700b7
:100f90000294be000094be00fc0447008694be008c
:100fa0008494be00090078008c03070008007800d4
:100fb0008a03070099007800814f70000b003b0006
:100fc0000800be00770307004f00b10003003700a0
:100fd000f3ff2700f2ff2f006110b9004f06be009b
:100fe0004f05be004f04be000080fa00000006005e
:100ff00081037800920007000001be006000b80085
:101000000478a30013003a006220e10015003e00be
:101010000d0039008301d1000281d3008180d3000b
:101020008301d1000281d3008180d3008301d100ec
:101030000281d3008180d3000538b000c42add00ce
:10104000f300b2008381720007f0a70003f0a00054
:1010500000000600f3ff2700f2ff2f006110b90027
:10106000fbff370003ff2700f7ff370014002000c5
:10107000810337001400fa00889fbe008a9fbe00db
:101080008c9fbe000004be000205be006800470041
:101090000a90be000890be00500307000070a70031
:1010a0000bf0a100304320009e029000808252008d
:1010b000b0fe2f000028e10011003d00b0fc2f0021
:1010c0000028e100150034001e0990008e089000f1
:1010d0007e0090000501b0000201d1008180d300a4
:1010e0000080d3008502e800fbff3a000b00e0001f
:1010f000baff3b0060001000e0801800b7ff370027
:10110000f0ff2f00f1ff27000b00e000b3ff3b00d2
:101110000100280000002000b0ff37006000b80088
:10112000aeff3700881f7800030478000300e0005a
:1011300007003d0060001000e08018006001190009
:10114000e081190002003b0001f02d000300370090
:101150000700070008f0a70003f0a0004f04780084
:10116000000006004f89de0082017800edff3700a5
:10117000889fbe000082700004027100048271002a
:101180002400320036432000c50020008383cf00b6
:101190000a0039000541b1008283cf000700390001
:1011a0000541b1008183cf00040039000541b10041
:1011b0008083cf00010039000541b10085c3530091
:1011c0006022b800120032000a003b0084827200e4
:1011d000610260008301d1000281d3008180d300cd
:1011e0000080d3000603e8008743e800f7ff3a00d9
:1011f00007003700000040008180480002014900dc
:10120000838149000603e9008743e900f9ff3a00ba
:1012100020ff07004f04be00000006000002eb00a4
:10122000730207000500320007ff230006002000bc
:101230006022b80003f0a7008a0107000000060042
:10124000c70ade00f107b200f50fb2000800320055
:10125000e1cf4200020032000170a000240005002e
:10126000810f7000010032000408050044000500f1
:10127000810f700002003a00140005008502e900a9
:101280000000400081c04800fcff3b000170a0004e
:10129000240005002800fa00889fbe008a9fbe0037
:1012a0008c9fbe0003866b0038ff07000028a30058
:1012b00064003a000128a30067003a000008a30078
:1012c00062003a000108a30065003a001e00900089
:1012d000be08900081064000ed3fb100f480570049
:1012e000ee019000111ab8008e099000311bb80071
:1012f0009e099000311cb800511db800f4855700bc
:1013000046000700fe0190003a0007008b85e800c8
:101310003e0007008e09900040000700ee0190009b
:10132000340007008b85e800380007008e09900024
:10133000400007009e0990001b18b8008904400077
:101340000a854800fe019000340007008b85e80004
:1013500038000700ee019000300007008e09900071
:101360001b18b800890440000a8548000a98a300a9
:1013700008003a000402420085824a0006034b003e
:1013800087834b0008044c0089844c000a054d00fb
:101390008d06e90084827200850273004c3add00fc
:1013a000850272000100320015002000443ade0080
:1013b0001400b2004538de00cb45dd000b007000a4
:1013c000c540de00cb4ddd008b8070004549de005e
:1013d000cb55dd000b017100c551de000d03780017
:1013e000acfe070003f0a1000cf0a70003f0a00082
:1013f000fafe37001b18b80085024000068348003b
:10140000e0834b0060044c00070037001b18b80055
:101410000603400087834800faff37001b18b80016
:101420008703400008844800e0844c0060054d00bc
:10143000000006001b18b80008044000898448001a
:10144000faff37000108a300e1fe3a005800be0091
:101450005801be00e3ff37000008a300dcfe3a009d
:1014600009047800f9ff370014002000000037005d
:101470000800fa00889fbe008a9fbe008c9fbe00b5
:10148000040678000004be000205be00adfe0700a1
:101490006420e1009f003e009b0032006120e100db
:1014a0009600320003f0a100171b240036582c00d0
:1014b00005a021000400200012fe07000800be0065
:1014c0000a01be000700350097012400b61f220064
:1014d0004544250084d12200820207000004be009a
:1014e0000205be008006eb000c00a700cf1ede0048
:1014f00003f0a1000bf0a10047fd230006f3250037
:1015000095dc260034882c0062ff07006022b800ba
:101510000003eb0007fe23000c00a60007ff2300da
:1015200087fc0700d3fe07000000a7000d00a20003
:101530000cff07000c00e00004003a0007fe230047
:10154000060020006022b800c600070003f0a200d9
:10155000009fbe000297be009700240006002200f4
:101560006022b8004bff07000802be000a03be005d
:1015700073fc0700809fbe00829fbe003e00be003d
:101580002e01be00f7f4230046542b00152d240035
:10159000a44628003fff07004f03be004f02be00d5
:1015a00067fc07000004be000205be0003f0a100b6
:1015b00067e42300e6092a00f5672600d4bc23006f
:1015c000d0fd07000800be000a01be00480035003b
:1015d0000002be000203be002eff0700009fbe00f7
:1015e0000297be0087ce2300f60f2800359926000b
:1015f00054f92d0027ff0700a7d62b0006422e0026
:1016000085c02d00c49924004dfc07003e02be0099
:101610002e03be001fff070067de2300c623210044
:10162000a586260004432d0045fc07003e02be00af
:101630002e03be0017ff0700a7e52b0056642e00ff
:10164000d5b52400b40a2c003dfc07003e02be00c4
:101650002e03be000fff070077ec230036de2100cb
:1016600045522a0034062f0035fc07003e02be001a
:101670002e03be0007ff0700a7f22b00061a20006a
:1016800015a02100a4e123002dfc07003e02be00ae
:101690002e03be00fffe070017f8230016112100dd
:1016a00015112100040b210025fc07003e02be009d
:1016b0002e03be00f7fe070057fc2b0056552500f1
:1016c00055552500545525001dfc07003e02be005f
:1016d0002e03be00effe07000802be000a03be0094
:1016e000ecfe07000802be000a03be0014fc07005f
:1016f0000d00a70003f0a20038fe37000c00a60082
:1017000003ff230035fe3700f3ff2700f2ff2f0011
:101710006110b9000330a000140220007442880058
:101720002efe37001400fa00889fbe008a9fbe007c
:101730008c9fbe000004be000205be00680047008a
:101740000a90be000890be00a40107000078a30024
:101750003d003a006100e1003c0032000bf8a300bc
:101760003d003a006400e100380032006c0347009d
:101770001e009000f03fb1003602be001603be000e
:101780000008a300040032000402420085824a00df
:1017900006034b0087834b00100798008e1f7800cc
:1017a0006000b8006011b8005c0020006d012000ee
:1017b0006e002000020037008d86e900fc0020004a
:1017c0000402420085824a0006034b0087834b00d7
:1017d00000044000818448000205490083854900d7
:1017e0006060e1001d60ad000804520089845a0069
:1017f0000a055b008b855b00030039001e60ad00ad
:101800000802be000a03be000c06e900ecff3b0024
:101810000e87e900e8ff3b004f0778006102600097
:10182000840278008301d1000281d3008180d3003b
:101830000080d3001e03900041b3de00f63fb000ed
:1018400094fd0700e5fd37000b30a0000800be0046
:101850000a01be00e1fd370012022000724288003a
:10186000dbfd370007f0a200b5fb37001400fa00db
:10187000889fbe008a9fbe008c9fbe000005be00f0
:101880000206be00680047000c90be000a90be0031
:10189000520107006400e1001a00320016003e0009
:1018a0006100e1001a0032006e049000fe04900016
:1018b0000e0b90009e0b90006011b8009e059000ea
:1018c0000b38b100d50120008281710061016400f4
:1018d0008703d1000683d3008984d3000884d30012
:1018e0008502e900f8ff3a00820107000df0a70029
:1018f00001f0a000b9fd3700f1ff2700f0ff2f0035
:10190000b6fd370001f8270000002000f7ff370080
:101910006000b800f5ff37000800fa00889fbe009d
:101920008a9fbe008c9fbe000004be000205be0060
:101930008306780083fd07006420e100a3003e00d9
:10194000a60032000006eb000bf0a10003ff23000d
:10195000020020006000b8000802be000a03be00ba
:10196000edfc070009003d0003ff230002002000fa
:101970006000b8000802be000a03be00ebfc0700ce
:101980000004be000205be002c00200013fd230051
:1019900042612200e1e9250060d52c000802be006a
:1019a0000a03be00dcfc07001d003d00b3ff23005e
:1019b000a2672b0081852e00a0ca24000802be0069
:1019c0000a03be005efb0700009fbe000297be0038
:1019d00073fe230052cf2600010b2d0050952900e5
:1019e0000802be000a03be002afe070007ff23000c
:1019f000060020006022b8009aff07000802be001f
:101a00000a03be004efb07003e02be002e03be00ce
:101a1000c6fc07000004be000205be000c06e8007c
:101a20000800be000a01be0003f0a10067e4230025
:101a3000e6092a00f5672600d4bc2300b1fc0700a4
:101a40000800be000a01be004c0035000802be00be
:101a50000a03be000ffe0700009fbe000297be00f3
:101a6000e702240096c42000a5142e0004712c0067
:101a700033fb07003e02be002e03be0005fe07003a
:101a8000d7042400a6a02c00d5202300743d2a00f2
:101a90002bfb07003e02be002e03be00fdfd07002b
:101aa0005705240026a12800b540200054da26005e
:101ab00023fb07003e02be002e03be00f5fd07001b
:101ac00047042400c687280045cc2b00945a2900df
:101ad0001bfb0700809fbe00829fbe003e00be0031
:101ae0002e01be00a7fe2b00a6d72c00159b2d00b3
:101af000d47b2800e7fd070007022c00f6d32f0057
:101b0000d5c8250034a626000dfb07003e02be0006
:101b10002e03be00dffd070047032c00f617280048
:101b2000259e2b00b4cc2b0005fb07003e02be0017
:101b30002e03be00d7fd0700b7022c00660a260060
:101b40006510250024ce2100fdfa07003e02be00ec
:101b50002e03be00cffd07004f03be004f02be00a4
:101b600072fc07000802be000a03be00c9fd0700a0
:101b70000802be000a03be00f1fa07000c00e000f4
:101b80000f0032000c10a70003f0a20084d1220045
:101b900045442500b61f220097ff23006260e10044
:101ba0000600320064362700d582230026152c005b
:101bb00007fe23000c10a70007ff2300e0fa070030
:101bc0000df0a70003f0a20004fd37000330a000d1
:101bd000140220007442880000fd370093ff2300a8
:101be000b21f22004144250080d12200f4ff3700bb
:101bf0001400fa00889fbe008a9fbe008c9fbe0022
:101c000004067800e80247008292be008092be007f
:101c100005007800710007006200e10033003a001f
:101c20006000b8006011b8001e0390000c03530060
:101c3000f63fb100220035004b0320000b30e100dd
:101c40002a003d00fb012000faff2f006154b9007b
:101c50006c0147008b05d1000a85d3008984d3002d
:101c60000884d3000603e900faff3b003200be00ff
:101c70001201be000002640081826400020365005c
:101c8000838365000502720006027200070272007b
:101c9000160032000884ea008984ea000a85ea0016
:101ca0008b85ea0000006400818064000201650009
:101cb000838165006022b8001e03900075fc070058
:101cc000de03900007f0a70003f0a0000082eb0005
:101cd0000400e0008e0290004f06be004f05be00db
:101ce0004f04be000080fa000000060064014700b7
:101cf000040020003200be001201be00f4ff3700d5
:101d0000889fbe008a9fbe008c9fbe000404be0058
:101d10000605be00809fbe00829fbe0089fc0700b2
:101d2000040678000800be000a01be0085fc07001a
:101d3000840678004f03be004f02be008d4f760030
:101d40007fb0970013003300f0ff2f008b8f6b00e4
:101d500006003b000d0666000c00a7000a003700d5
:101d600007f0a600100020000a003700880f52007c
:101d7000898f5a008a0f5b008b8f5b00030039004c
:101d80001000200001003e000000200007f0a70026
:101d90000000ea004f06be004f05be004f04be0023
:101da00000000600e48240001078a3000700320023
:101db000640240001178a3003400be001401be008c
:101dc000040032000330a700000006003500be000a
:101dd0001501be000330a00000000600800078005e
:101de0005002be005003be004439de00f700b200ce
:101df000f37f200003016100090032000218e100b6
:101e000016003a008501720083017300838173001c
:101e10000008200015003a004000200013003700a1
:101e200085017200830173008381730005003a000d
:101e300004a8be0006a8be00100020000b0037005a
:101e40000201e9000402420085824a0006034b00b9
:101e500087834b000748a300f9ff32000740a0002a
:101e600004a8be0006a8be00200020008000980044
:101e70009200980000000600889fbe008a9fbe0066
:101e8000841f7800410007004f00780011003300e4
:101e9000f0ff2f00838f6c0006003b0004056500f7
:101ea0000a00a7000800370009f0a6001000200073
:101eb00008003700820f5400838f5c000300390054
:101ec0001000200001003e000000200009f0a700e3
:101ed0000000ea004f05be004f04be000000e00015
:101ee00000000600801feb00300007008f87e9002c
:101ef0000000060081002000618055000b003d00bd
:101f00000b00200061fe2f000100e1001d003400e5
:101f100082817100610164008904d1000884d300ca
:101f20000000e800faff3a00710020006100640040
:101f300003007000020060000900320061044400e8
:101f4000e0844c000988a500050032008b05e800fc
:101f50006808e10002003a008904d1000884d30037
:101f6000f20f20000258e10005003d00c75ddd00d2
:101f7000f907b200898075000800780000000600ab
:101f80000bf827008b007800000005000004be005d
:101f9000abfc07000003be000405be000200be004b
:101fa000a7fc0700844f7500000006002800fa0017
:101fb000889fbe008a9fbe008c9fbe000efe9700c9
:101fc000f2fb07006108e1005c0032006200e10002
:101fd0005a003e00540039006408e100520032000b
:101fe0006c014700748557003200be001201be002c
:101ff0003a04be001a05be009e029000be0e90007c
:102000000d82520017003b000402e80046003a002f
:10201000880f5000898f58008a0f59008b8f590004
:102020004100340064014700780347003200be00dd
:102030001201be003602be001603be0007f0a1006a
:1020400003f0a60007f0a0000c70a700bcf9070081
:10205000e2fb370000004000818048000201490097
:10206000838149000c00a0000800500089805800be
:102070000a0159008b81590005003b00080040000f
:10208000898048000a0149008b8149000c00a100a9
:102090000402e900efff3b0000024000818248009b
:1020a00002034900838349001b00320008025200ea
:1020b00089825a000a035b008b835b004200f800b0
:1020c00005003700000040008180480002014900ff
:1020d000838149008d06e9000340a600f9ff37001f
:1020e0006022b8000d0378006afb07007803470000
:1020f0004200f9000800350002003c000c08a30073
:10210000050032003602be001603be0007f0a00034
:102110000c70a7008af907005e02900004f0a70087
:1021200003f0a200adfb37002e009000be0090002f
:102130004e019000de019000a8fb37001002200045
:102140000c70a60070428800a1fb37008001780067
:1021500002003700815978000201e9000200e00026
:10216000fcff3a0000000600800078003104e00027
:10217000feff3a000080ea000080400000000600f8
:102180000a003700b04178000304e0000300320089
:102190000201e900b1cf5100040032008381fb004d
:1021a0001480fb000080510000000600010278004e
:1021b0000200e000f3ff3a00000005000c00fa0006
:1021c000889fbe0000047800f0ff2700d0bf9f006a
:1021d0008004eb0099bf9f0088bf9f00a8bf9f00ad
:1021e000200c2000b0bf9f0078815700cfb097002f
:1021f00070805700d00007000fb89700094878009a
:102200008fb89700088050004f04be000080fa008d
:10221000000006000800fa00889fbe008a9fbe00ea
:102220000084fb00d1c6b300814f5000340036005b
:102230004b062000110009000b84d80081057800ae
:10224000720040004300dd0089e22000008044006d
:102250006022b8000600200007fe23005001be00e7
:102260004000be000bfc07000002be000203be00df
:1022700084bf9f0095bf9f00a6bf9f00b7bf9f0070
:10228000aa002000110009008a85d8008005780086
:10229000e9854500c35ddd008b8544003b02be003f
:1022a0002b03be000fb897009fb897002fb9970077
:1022b000bfb99700f7fb07000002be000203be0093
:1022c00084bf9f0095bf9f00a6bf9f00b7bf9f0020
:1022d000110009000a84d800010478004344dd009d
:1022e000888444003902be002903be000fb897005d
:1022f0009fb897002fb99700bfb997001d0037000e
:10230000ea4f500013003600aa0020001100090017
:102310000a84d80001057800690440004344dd00c8
:1023200089e22000088444006022b80006002000f2
:1023300007fe23003800be002801be00d5fb0700c1
:102340004355dd008a8444003902be002903be00e3
:10235000080037004344dd0080e22000080440000c
:102360006022b8000600200007fe23003800be00ef
:102370002801be00c7fb07004f05be004f04be008a
:102380000080fa00000006000800fa00889fbe00e6
:102390008a1f780000047800d00620000800e000c2
:1023a0001f003d000804ea00800f540007003400bd
:1023b00042062000110009000204d800720040000b
:1023c0004300dd0089e220001d003700ea0f5400c1
:1023d00010003400a2002000110009000204d800ff
:1023e00001047800690040004300dd0081e2200024
:1023f000008040004344dd00888040003102be0080
:102400002103be005001be004000be00a1fb07003a
:102410003c0037004344dd0080e2200036003700f6
:10242000800f5400250034004206200011000900ee
:102430000204d800720040004300dd0089d720006c
:1024400080814400aa002000110009008a00d80001
:102450008000fd00e9804000c308dd008180440069
:102460003102be002103be003300be001301be00d6
:1024700088fb07000002be000203be0094bf9f005d
:10248000a5bf9f00b6bf9f00c7bf9f0011000900f6
:102490000a04d800010478004344dd008884440025
:1024a0003902be002903be001fb89700afb89700dd
:1024b0003fb99700cfb99700d4ff3700ea0f540017
:1024c0000b003400a2002000110009000204d80013
:1024d00001017800690040004300dd0081d7200041
:1024e000008040004311dd0082804000c3ff3700c0
:1024f0004344dd0080d72000080440003800be00bf
:102500002801be004f0578004f04be000080fa008d
:1025100000000600d0019000028151004240a90055
:102520000300340010017800014978000208e80037
:1025300001007800000006002f04b000889fbe0054
:102540008a9fbe008c9fbe008e1f78000006780018
:10255000e19f9f0082af9f006000b8006011b8004b
:1025600080a79f0091a79f00a2a79f00b3a79f00ed
:102570008006eb00a4053700ef9897008100e80083
:10258000e19f9f0051c2b300814f500003003a0009
:102590006f9997000007eb0011003700bc00900016
:1025a0000000fb000168a300070032000d01780065
:1025b000800078000c007800d6ff07000000e000e3
:1025c00005003a00900537008c0078005809070094
:1025d000e10f40008c0532008d06e8008a053700c7
:1025e00002007800b2407800d3c2b30083cf50001d
:1025f0000c00320007003c00edc1510083cf5000b9
:102600000a003200ebc1410083cf50000d003a00b8
:102610000800370003c3b30083cf500009003a001d
:10262000060037000e30a000edff37000e00a000be
:10263000ebff37000e10a000e9ff37000e20a000ce
:10264000e7ff37000e18a300010032000e00a100c2
:102650000e38a300010032000e20a1000101fb0092
:102660000203b100e90f51000e003e008000780027
:102670000001eb0092b79f006a11b9003100fb0026
:102680000003b10002014000010078009101fb004d
:102690000303b100e98f5100f7ff360092b79f00a6
:1026a0000a0037008001eb0093b79f00a2c2b3007d
:1026b00082cf500005003a000faa9700c4027800ac
:1026c00084af9f0095b79f000000e800e1c2b3000f
:1026d00090cf100017003a000ee0a000e4c05000b8
:1026e000d0cf100003003200800078008001eb00a2
:1026f000090037008fab9700c700780087af9f00b5
:10270000d1af9f000000e800000178000d00370005
:102710006a1ab90084014100010078003101fb0010
:102720000203b100e90f5100f9ff3600d3af9f005b
:10273000f5ff37000ec0a0000001eb00d2af9f00f4
:10274000f1ff370082017800334078000301780000
:10275000c1c6b300814f50002b003200e39f9f00a1
:1027600014003c00e8c05000814f500024003200ab
:1027700009003c00ecc05000814f50002e00320098
:10278000ebc04000814f5000980032000004e00090
:1027900022053200b400370061c6b300814f5000fb
:1027a0001f003200e3c04000814f5000ae003a00ed
:1027b0001300370031c7b300814f500022003200b0
:1027c00007003c00e4c05000814f50001700320069
:1027d0008140e800814f5000a3003a001600370006
:1027e00051c7b300814f5000a4003200e3c0400045
:1027f000814f50009c003a00a0779f0010003700e6
:10280000a0779f009f003700000120000e48a30022
:1028100001003200000028000e077000c9ff3700d9
:10282000a0779f000ea0a00096003700a0779f0021
:102830000e60a00093003700a0779f000e50a0000c
:102840000e70a0008f003700a0779f008fa997001f
:102850004300780083af9f00000478000000e00090
:1028600001003a0008002100880078000000eb0019
:10287000010037000000e800614178000204e00038
:10288000fcff3a00800478005faa97000400e00093
:1028900003003200890f52000100310084047800e7
:1028a0008001eb009fb29700898f52000100360033
:1028b0008981520068036700d6af9f002c003a0060
:1028c00003077800110037003c0090000068a30067
:1028d000070032000d017800010220000c00780092
:1028e0000cff07000000e00006003a000600370079
:1028f0008c007800000220008d080700e10f4000e6
:10290000010032008d06e8000e07e9000e00e0002d
:10291000edff3a008081eb00150037003c0090008d
:102920000068a3000900320008007800b000fb0036
:10293000000478000d0178000c007800f5fe070017
:102940000000e00008003a000a0037008800780024
:102950003100fb00010478008c0078007408070047
:10296000e10f4000030032008d06e800010037004f
:1029700003077800090078008004e9000000e00007
:10298000e6ff3a008e017800dfab97000700e00019
:102990009d04320003077800110037003c009000ce
:1029a0000068a300070032000d017800010220003a
:1029b0000c007800d7fe07000000e00006003a0097
:1029c000060037008c00780000022000580807003d
:1029d000e10f4000010032008d06e8000e07e9001b
:1029e0000e00e000edff3a00870437008fa8970043
:1029f0004100780081af9f006102b900612bb900ee
:102a000094af9f00a5af9f00b6af9f00c7af9f00d8
:102a10004822de004828dd0004027000a4779f00f1
:102a20000e48a300090032000404e0000700320051
:102a3000e14f420005003200b4779f00afd097000d
:102a4000c1779f0029002000030037002fd1970095
:102a5000b2779f001900200023fb2f008f814100d7
:102a60000304e80088ff3700a0779f0028fb2f00b1
:102a70000f0444001900200083ff3700a0779f0057
:102a80000e0cb300007020000000670065023200e9
:102a90000ec8a3000200320064002000d4af9f00e3
:102aa0008faa9700688052000e48a30009003200e8
:102ab00080af9f00800078005101be004100be0041
:102ac00090af9f00a1af9f00b2af9f00c3af9f0028
:102ad0000800370080af9f00800278005503be00d9
:102ae0004502be0094af9f00a5af9f00b6af9f0008
:102af000c7af9f006022b8006033b8001fa89700de
:102b0000afa897003fa99700cfa997007df80700cd
:102b10000000e0000a003d001fa89700afa8970042
:102b20003fa99700cfa9970003f0a20090af9f00a4
:102b3000a1af9f00b2af9f00c3af9f003e00b300a4
:102b40000000eb00b09f9f006022b8006033b80027
:102b50001fa89700afa897003fa99700cfa997009b
:102b6000040907000000e0003400320064fb2f007d
:102b70000f0242001fa89700afa897003fa9970037
:102b8000cfa99700360907003f9897000000e90099
:102b90006302b900a2002000110009000202d8005f
:102ba000b09f9f000000e00002003d000000e9002f
:102bb000b09f9f003f9c97000800ea00f2fd0700cd
:102bc0001faa9700afaa97003fab9700cfab970023
:102bd000b0f907000002be000203be0084a79f00f8
:102be00095a79f00a6a79f00b7a79f006022b800e7
:102bf0000600200007ff230042f807000000e00065
:102c000002003d000804e9000b0037006022b80014
:102c100006002000470224000fa097009fa0970005
:102c20002fa19700bfa197003bf807000000e0002c
:102c3000020035000804e800b89f9f00dfaa970053
:102c4000f88f52000f003c000540780071fd07002e
:102c50000002be000203be001fa89700afa89700a5
:102c60003fa99700cfa99700b5f607000002be0064
:102c70000203be0094af9f00a5af9f00b6af9f00b8
:102c8000c7af9f003f9c9700e90f540015003c0020
:102c90006022b8006033b8001fa89700afa8970063
:102ca0003fa99700cfa99700b20807000000e000f5
:102cb000320032001fa89700afa897003fa99700e5
:102cc000cfa99700b2080700e00f5000e08f58002e
:102cd000e00f5900e08f590028003a00e10f54003e
:102ce0002600340054692d0065822e00b6e02200d3
:102cf000170124000fa097009fa097002fa1970015
:102d0000bfa19700fff707000000e00002003d00b0
:102d1000730454000100370072045400b89f9f00f0
:102d20003f98970098fd07000002be000203be0016
:102d300084a79f0095a79f00a6a79f00b7a79f0005
:102d40001fa89700afa897003fa99700cfa99700a9
:102d5000f6f707008e0807000205be000004be005b
:102d60006000b8006011b80090af9f00a1af9f0055
:102d7000b2af9f00c3af9f00170037001fa8970096
:102d8000afa897003fa99700cfa997008008070038
:102d90000205be000004be00f5f807000002be00f8
:102da0000203be001fa89700afa897003fa9970095
:102db000cfa99700abfa07000002be000203be00d5
:102dc00094af9f00a5af9f00b6af9f00c7af9f0015
:102dd0000000eb00b09f9f000501210014c0b3006c
:102de000080037003500be003501be000040e1009c
:102df00001c8e10002d0e10003d8e100030039007e
:102e00000442e800f44f5200f6ff3a00a4779f0016
:102e10003f9897009fb29700008052005fab9700e9
:102e2000860050000400fb000080500090b79f0017
:102e30000600e000020032000000e90090b79f00a9
:102e400063006700030032009fb397008703e90027
:102e500097b79f000e28a300500032006101670061
:102e60000e18a3000f0032003c0090000068a30081
:102e700006003200b10220000200e0000100320032
:102e80008180e8000d0178000d003700b0022000bd
:102e90000200e000010032000080e8008c007800b1
:102ea0000e0037000200e000330032003c009000ca
:102eb0000068a300070032000d0178000102200025
:102ec0000c00780093fd07000000e00006003a00c7
:102ed000290037008c00780000022000140707004a
:102ee000e10f4000240032008d06e8002200370088
:102ef0003c0090000068a3000f0032000d01780034
:102f0000010320000c007800f4b79f0085bf9f00ec
:102f1000d6b79f00e7b79f007efd07007fb29700fe
:102f20008fba97005fb39700efb397000000e000ff
:102f30000e003a000e0037008c00780000032000dd
:102f4000f4b79f0085bf9f00d6b79f00e7b79f00eb
:102f5000f70607007fb297008fba97005fb397001c
:102f6000efb39700e10f4000010032008d06e8004a
:102f70008904e900030037000802be000a03be000e
:102f80009fb497000900e000d9ff3c0099b79f006b
:102f90000605be000404be00670037000e38a3001b
:102fa0001e003a00c8a79f00d9a79f00eaa79f006c
:102fb000fba79f009fb49700110037003c009000d2
:102fc0000068a300070032000d0178000102200014
:102fd0000c0078004ffd07000000e00006003a00fa
:102fe000060037008c00780000022000d0060700a1
:102ff000e10f4000010032008d06e8008904e9007d
:103000000900e000edff3c0099b79f004fa4970036
:10301000dfa497006fa59700ffa5970061016700e7
:103020000e18a3000e0032003c0090000068a300c0
:1030300005003200b10220000200e000250032004d
:103040008180e80023003700b00220000200e00089
:10305000010032000080e8008c0078003200370068
:103060000200e000340032003c0090000068a30041
:10307000030032000d017800010220001600370025
:103080008c00780000022000270037003c019000ef
:103090008100fb00800021000268a30013003200c1
:1030a000c308dd00010040003002be002003be0066
:1030b0000800be000a01be00f9080700a4002000b5
:1030c000050020006033b800fc0807000103200061
:1030d000808040000d0178000c0078000dfd070095
:1030e0000000e00013003a0013003700c308dd00c1
:1030f000010040003002be002003be000800be00f8
:103100000a01be00e6080700a40020000500200018
:103110006033b800e9080700020320000001410005
:103120008c0078000200780081060700e10f400063
:10313000010032008d06e8002f7097008040e90002
:10314000a1779f000004e000d0ff3a001300370091
:103150003c0090000068a300070032000d017800d9
:10316000010320000c007800eafc07000000e000ea
:1031700006003a00060037008c00780000032000ab
:103180006b060700e10f4000010032008d06e800e9
:103190003f9897000000e900b09f9f003f9897007c
:1031a0000000e000eaff3c00dfa89700f28f50002b
:1031b0000300340020c1b300a0779f000200370055
:1031c0002fd99700a2779f002f7097008000fb00f7
:1031d000dfa9970081805100d1af9f000004e0007b
:1031e000100032003c0090000068a300070032008d
:1031f0000d017800e10220000c007800c5fc0700fa
:103200000000e00006003a00060037008c0078005d
:10321000e002200046060700e10f400001003200f6
:103220008d06e8002f7297000400fb0056fc070093
:103230000002be000203be001fa89700afa89700bf
:103240003fa99700cfa9970012f807005007070081
:10325000330037003c019000810021000000fb009a
:103260000268a300130032004300dd00008040002c
:103270003002be002003be000800be000a01be00ee
:1032800087080700a4002000050020006033b80074
:103290008a0807000003b0000d0178008000780064
:1032a0000c0078009bfc07000000e00011003a00d1
:1032b000110037004300dd00008040003002be00f6
:1032c0002003be000800be000a01be00740807000b
:1032d000a4002000050020006033b8007708070034
:1032e0000003b0008c00780011060700e10f4000d9
:1032f000010032008d06e800af7297000500fb0068
:103300004300dd0081002100008040003002be004b
:103310002003be000800be000a01be0067080700c7
:103320000205be000004be00af7097000140e90036
:10333000a0779f000104e000c6ff3a0098af9f000d
:10334000a9af9f00baaf9f00cbaf9f00dfac970043
:10335000110037003c0090000068a3000700320015
:103360000d017800010320000c00780069fc0700c3
:103370000000e00006003a00060037008c007800ec
:1033800000032000ea050700e10f400001003200c1
:103390008d06e8008904e9000900e000edff3a002d
:1033a0001fac9700afac97003fad9700cfad970033
:1033b0000e38a300140232009fb097000100e00015
:1033c00011023400d8af9f00e9af9f00faaf9f0011
:1033d0008bb79f00810478003c0090000068a30038
:1033e000070032000d017800010220000c00780077
:1033f00048fc07000000e00006003a000600370025
:103400008c00780000022000c9050700e10f400091
:10341000010032008d06e8008904e900eeff3a0061
:10342000f90137000e007800000cb20021003a00cc
:103430000e00e00005003d008faa97004505be0084
:103440004504be0085af9f000d0037000e48a30065
:10345000060032000fab97004604be0086af9f0007
:103460004fcdde008a057800050037008fab97004e
:103470004704780087af9f00cfc4de00614db900dc
:10348000e00f5400e08f5c00e00f5d00e08f5d0016
:103490001b003d003e00b3006000b8006011b800a2
:1034a00008045000898458000a0559008b8559008a
:1034b000130037000e00e00005003d000fa8970044
:1034c0004005be004004be0080af9f000c003700e6
:1034d0000e48a300050032008fa897004104be00eb
:1034e0006055b80081af9f00050037000fa9970015
:1034f0004204780082af9f008004eb006055b80062
:10350000dfa997000300e00009003a001400200042
:10351000d4af9f00e00f5400e08f5c00e00f5d002f
:10352000e08f5d00020032008002eb00d5af9f000b
:103530000e037800060cb20096af9f000004200036
:10354000800f53002c00320003003c000600e00016
:10355000080032003c003700000820009fab9700b5
:10356000808f530010003200000c2000808f530029
:1035700035003a000501210014c0b3003500be003b
:103580003501be000040e10001c8e10002d0e100c9
:1035900003d8e1002b0039000442e800f44f520048
:1035a000f6ff3a002700370014c0b30000012000e6
:1035b000010020006011b8000040e10001c8e100f6
:1035c00002d0e10003d8e1001e00390045002000d0
:1035d0000000d0008180d2000281d2008381d2001d
:1035e0008502e900faff3a000442e800f04f520079
:1035f000f1ff3a001300370014c0b3008000200030
:10360000010020006011b8000040e10001c8e100a5
:1036100002d0e10003d8e1000a00390036002000a2
:103620000000d0008180d2000281d2008381d200cc
:103630000603e900faff3a000442e800f54f5200a1
:10364000f1ff3a00a4779f00af7397000700fb00db
:10365000dfa89700810f500002003d00a1779f0076
:10366000040037005fa99700800f510001003d0062
:10367000d0af9f009fb197000300e000040032002c
:1036800063006700020032008301e90093b79f00e6
:103690000ee8a300090032001fb29700dfaa9700ce
:1036a000850f5200030034000502520094b79f00ba
:1036b000020037000003eb0096b79f00af7397003e
:1036c0000700fb008000eb00c1a79f001fb197001f
:1036d000800f51000200340000005100c0a79f007d
:1036e0000e28a30044003200610167000e18a300f9
:1036f0000f0032003c0090000068a300060032007a
:10370000b10220000200e000010032008180e800e8
:103710000d0178000d003700b00220000200e0002b
:10372000010032000080e8008c0078000e003700b5
:103730000200e000100032003c0090000068a3008e
:10374000070032000d017800010220000c00780013
:1037500070fb07000000e00006003a00060037009a
:103760008c00780000022000f1040700e10f400007
:10377000010032008d06e800cfa197000300e000b1
:103780006200320098b79f00a9b79f00bab79f00a8
:10379000cbb79f00830478003c0090000068a30032
:1037a000070032000d017800010320000c007800b2
:1037b00058fb07000000e00006003a000600370052
:1037c0008c00780000032000d9040700e10f4000be
:1037d000010032008d06e8008904e900eeff3a009e
:1037e000c9a79f001fb49700afb497003fb59700db
:1037f000cfb5970045003700cfa297000500e00045
:103800001e0032000e38a3001c003a0098b79f003b
:10381000a9b79f00bab79f00cbb79f008504780077
:103820003c0090000068a300070032000d01780002
:10383000010220000c00780036fb07000000e000c9
:1038400006003a00060037008c00780000022000d5
:10385000b7040700e10f4000010032008d06e800c8
:103860008904e900eeff3a00c9a79f001fb4970042
:10387000afb497003fb59700cfb5970061016700df
:103880000e18a3000f0032003c0090000068a30057
:1038900006003200b10220000200e0000100320008
:1038a0008180e8000d0178000d003700b002200093
:1038b0000200e000010032000080e8008c00780087
:1038c0000e0037000200e000100032003c009000c3
:1038d0000068a300070032000d01780001022000fb
:1038e0000c0078000bfb07000000e00006003a0027
:1038f000060037008c007800000220008c040700ce
:10390000e10f4000010032008d06e800dfa89700bb
:103910000100e9004201dd00d29f9f006301b90070
:1039200002027800c49f9f004300dd008100210057
:1039300081004000f19f9f0098b79f00a9b79f00aa
:10394000bab79f00cbb79f0094003700dfa897005d
:103950008100e900d1af9f00000420001fa997005b
:10396000800f51006400320003003c000200e000c0
:10397000080032006f003700000820009fa9970060
:10398000808f510048003200000c2000808f5100d1
:1039900068003a000e00e0001a003d007f9a970090
:1039a0003404be002405be000802be000a03be00a7
:1039b0001fb09700afb097003fb19700cfb197000d
:1039c000b7060700a0779f000000fb00cf80de0055
:1039d0006109b9000802be000a03be00190707000a
:1039e0001fb29700afb297003fb39700cfb39700d5
:1039f0000002520081825a0002035b0083835b0055
:103a0000170037000e48a3001a0032001fb29700bb
:103a1000afb297007f9b97003604be002605be001c
:103a20000801be000400be00f4b79f0085bf9f00e0
:103a3000ec050700a0779f000000fb00cf80de00b0
:103a40000801be00f70507007fb297008fba970004
:103a50000000520081805a000002be006033b800ae
:103a600094b79f00a5b79f00b6b79f00c7b79f0048
:103a700009003700ff9a9700150178001fb39700df
:103a8000110009000283d800a200200011000900e3
:103a90000280d800a1779f00af7397000743b00062
:103aa000a7779f0023003700f0fe20000e58a300e8
:103ab00001003200e0fd20001fb29700afb2970076
:103ac0003fb39700cfb39700df9897008100e900dc
:103ad000050033008703d1000683d3008582d3001d
:103ae0000482d300f9ff37006f02620060427a005f
:103af000a4779f000f0037001fb09700afb097006a
:103b00003fb19700cfb197004f9a97000402e900a8
:103b1000050033008301d1000281d3008180d300ee
:103b20000080d300f9ff3700674060000043b00019
:103b3000a0779f00bc009000af7297000500fb00cb
:103b40000168a300070032000d01780080007800b2
:103b50000c0078006ffa07000000e00005003a0052
:103b6000050037008c007800f1030700e10f4000ea
:103b7000010032008d06e8005f9b9700640353004c
:103b8000d69f9f00cf9b9700e3835300c79f9f0062
:103b90007f98970068005000f09f9f00dfa8970073
:103ba0000100e00069ff3a000e38a3001600320061
:103bb0004fa197000200e0001300340002077800d4
:103bc0003c0090000068a300070032000d0178005f
:103bd000010220000c0078004efa07000000e0000f
:103be00006003a00060037008c0078000002200032
:103bf000cf030700e10f4000010032008d06e8000e
:103c00000e07e900eeff3a00ef99970013407800a5
:103c1000a0779f000004e00057fa3a000d007800fa
:103c20004f0778004f06be004f05be004f04be0090
:103c30002f04b100000006000c00fa00a0bf9f0096
:103c4000c0bf9f0048f90700b0bf9f00f0bf9f00b2
:103c5000100c2000d0bf9f0074815700efb0970078
:103c60006c805700340007000080fa000000060056
:103c7000881f7800f0868000300307000004780079
:103c80000800780035f207000000e000f9ff3a0074
:103c9000e10f440003003200f18680000800780044
:103ca000e60307004f04780000000600889fbe006e
:103cb0008a1f7800000478008144780002057800ab
:103cc00000fd2f0008004000e90f500002003e00f8
:103cd00000047800100037000800780027f2070081
:103ce0000000e000050032000a00e000030032009e
:103cf0000800780027f20700000478000800780028
:103d00000cf207008000780000c0eb000100e0002a
:103d1000060032007805b1008984fb0000c0eb008a
:103d2000890f540001003d00084078004f057800dd
:103d30004f04be0000000600cf04b000889fbe0004
:103d40008a9fbe008c9fbe008e1f7800f1b79f0037
:103d500002057800f08688000000eb00c0b79f00e5
:103d60000006eb008044eb00d9ef9f00e301370031
:103d7000ffb097008100e800f1b79f008884fb0046
:103d800009007800f5f107000000e00002003200b1
:103d9000b7ff0700d701370050c2b300804f54006f
:103da000c5013a008044eb0020c0b300c0ef9f0083
:103db0007fb09700094178002bc0b30080067800df
:103dc000040037004bc0b300010037002bc0b30024
:103dd0000d0078003d44780071c6b300814f540057
:103de00022003e0081c0e900814f540043003100b1
:103df000f9c05000814f5400a80032000e003e0070
:103e0000e7c05000814f54003c00320006003e00e5
:103e10000804e00090003200fbc05000814f5400c5
:103e2000fb003a003300370071c4b300814f5400e7
:103e3000f7003a003100370031c6b300814f54001b
:103e4000db00320006013e00ebc05000814f540001
:103e5000ef003a00cbef9f0089457800824478005c
:103e6000fdb79f00100020001f003700e1c6b3001f
:103e7000814f54008d00320008003e00e5c0500024
:103e8000814f5400f6003200d0ff3900e3c04000fb
:103e9000814f5400de003a008000370031c7b30084
:103ea000814f54009200320004003e00e4c05000f4
:103eb000814f5400d6003a00f000370051c7b300dc
:103ec000814f5400e6003200e3c04000814f5400af
:103ed000cf003a00cbef9f008945780082447800fc
:103ee000fdb79f000000eb00c0b79f0001c1b30009
:103ef000e70037008944e800b5ff3700cbef9f00ab
:103f00008945780082447800fdb79f0058ff07007c
:103f10000904e00001003a00b9c3b300f086800054
:103f2000860207000c04e800d1022000810f500037
:103f300008003a008efa2f000f074700005f780054
:103f4000f08680007d0207000804e8008944e9004b
:103f5000020037008efa2f000f0747000046eb00e3
:103f600009003700005f7800e1022000810f500057
:103f700001003a000c46e800f08680006f0207005e
:103f80000804e8008944e9000904e0000400320064
:103f900001fd2f0080804000e98f5000f1ff3600c6
:103fa0000c04e00003003a00e1022000810f500001
:103fb000ecff32000904e0001d0032005106200031
:103fc000810f50000300320051042000810f500087
:103fd00017003a00005f7800f08680005702070063
:103fe0000804e8008944e9000b003200d1022000f7
:103ff000810f5000030032008180e900810f5000e2
:1040000005003a00005f7800f08680004b02070050
:104010000804e8008944e9000904e00004003200d3
:1040200001fd2f0080804000e98f5000f5ff360031
:10403000004feb00e10f400003003200f1868000ea
:10404000fe0207000804e90081fa2f008f8040007b
:10405000810f570002003a00dfec9700ab003700f9
:104060000b04e00024013a005fe897000040e800fc
:10407000d0ef9f000a85e9009a0478008000eb00e9
:1040800080fa2f000f00400028010700d8f3070036
:10409000809cbe008294be0017013700e2cf55001d
:1040a00048ff32008bc0b30049ff3700cbef9f00c1
:1040b0008945780082447800fdb79f000b04e0003a
:1040c00074003a000a85e9004fe89700e44f500079
:1040d00004003a001a0078006161b9000288be004d
:1040e0006c0037001a0078000c087800690037006f
:1040f0008945780082447800fdb79f00dcfe070008
:104100000b04e00001003a004a077800f0868000c6
:104110000a02070080067800e18f460002003200a4
:104120000c04780014003700dfec97000d007800d5
:10413000eb0037000804e800ffb097001100fb0017
:10414000808f560003003a008100e800f1b79f001d
:10415000100037000b04e00001003a000d5f78000a
:104160000cc04400884f50000a003200f0868000e6
:10417000f2010700800678000d00e800e10f500012
:10418000040036000d007800f4f007000000e000a5
:10419000e8ff32000b04e000d7003a005fe8970028
:1041a0000040e800d0ef9f000b4f7800d2003700ae
:1041b0008945780082447800fdb79f000b04e00039
:1041c00004003a00dfe897008140e800d1ef9f004b
:1041d0004a0778000c047800f0868000d7010700b9
:1041e000e10f400002003a00dfec9700bc0037000e
:1041f0000b04e00002003a000804e800005f7800c9
:104200008944e9004240a900f3ff3c00ba003700ae
:104210000884fb0001fd2f0088804000e98f5000da
:1042200009003e00a6010700004178008d007800db
:10423000810678003100fb000003b100e90f500057
:10424000fbff3600e2fe3700fdb79f00f0868000de
:10425000ba010700800f54009b003a00a500370008
:10426000cbef9f008945780082447800fdb79f001e
:10427000a0c0b300d0e79f0006003700cbef9f003f
:104280008945780082447800fdb79f0081c0b30063
:10429000d1e79f0076fe0700f0868000a7010700a7
:1042a000d0b79f000c06e800bcb79f000040eb00b1
:1042b000c0e79f00d0022000dfb09700808f500041
:1042c00008003a00f08680009c010700d0b79f00ec
:1042d0003fb097000000e800b0b79f0011c0b300e6
:1042e000c1e79f004fb19700dfe097005fb09700f4
:1042f0006efe0700e14f40000d003a00dfec970032
:10430000f18680005fb097004c0207000904e000ce
:104310007f003a00f0868000b00090000000eb00c3
:104320000148a3007b0032000080eb0079003700d9
:1043300000032000dfb09700808f500018003a0083
:10434000f08680007d01070081072000810f50006a
:1043500004003a00cfb097000100e00007003200ef
:104360000d00370081052000810f50000a003a003f
:10437000cfb097000100e00007003200f086800017
:104380006e010700d0b79f003fb097000080e800a3
:10439000b0b79f0002003700f186800027020700b7
:1043a0006066b8000a0478000c00be000b46780076
:1043b000dfe697000005be0001003700b3b79f009d
:1043c0000d81fb008001eb000a00be009503070091
:1043d0000005be004fb197008d4078005fb0970098
:1043e00032fe07000080fb008000eb000005450066
:1043f00081854d00bfb097008101e8008944e90044
:104400000a003200f086800083bf9f004b01070046
:10441000d0b79f004fb197008d40780023fe070072
:104420008fb99700e14f4000e4ff3a000a00be0058
:104430008c45780008057800030478000006be006b
:104440004fb19700dfe097005fb0970017fe0700bd
:10445000e14f400004003a00f18680005fb0970011
:10446000f60107003fb497004fe097000004e0001a
:104470000200320060061600e0861e000b04e00019
:104480001d003a00dfe897008140e800d1ef9f006f
:104490000a85e9004fe89700e44f500003003a0016
:1044a0001a0078000c88be00130037001a0078004c
:1044b0000c08780010003700f08680001f0107000c
:1044c000808f540009003200dfec9700e10f4000bc
:1044d00003003200f1868000d80107000c0037008d
:1044e0000904e0000a003a000a0037000c04e80062
:1044f000010037000c047800080678007fb09700b0
:10450000104478000804e00019fe3a00dfec970040
:104510000980fb004f0778004f06be004f05be0024
:104520004f04be00cf04b10000000600889fbe000b
:104530008a9fbe008c9fbe008e1f78000106780007
:104540000c00e00001003200000e780080047800ca
:10455000090578008a047800b905fb000b00780093
:10456000feef07000000e000f9ff3a00d002200053
:10457000808f550003003a000905780018c0b30089
:10458000050037000044eb00b0022000808f55008a
:1045900001003a00090578006000b8008004eb00d3
:1045a0000007eb00010037000a05e8000a01780067
:1045b0000848a30005003a00e3c2b3009acf1100f7
:1045c00002003a000844a000f7ff37009a4578003f
:1045d0008b01fb000303b100e98f510016003e0080
:1045e0000814a0000801fb00e98f54000e003200ff
:1045f0000248a300010032000e07e9008904e80028
:10460000a2002000030020000603070002cdb30033
:1046100002c145000281fb008001eb000000410067
:1046200081804900e0ff37000248a300deff3a0026
:104630000e07e800dcff370053c6b30083cf5500f8
:10464000040032008004eb0053c4b30083cf550054
:104650002d003a005a417800d3c2b300834f510075
:1046600002003a000834a00003003700b3c2b300d0
:10467000834f510001003a000a05e8000a01780062
:10468000020578003a42780003c3b300834f52001a
:10469000faff32008402fb000503b1008004eb0046
:1046a000e98f520015003e00834452008984fb00cc
:1046b0000a017800124278008402fb000503b10071
:1046c000e98f52000d003e006a4bb900834452004e
:1046d0008984fb0086844400524278008402fb00f7
:1046e0000503b100e98f520004003e006a4bb90097
:1046f000834452008984fb00868444000838a30068
:10470000010032008904ea000c00e00003003200de
:104710000818a30001003200020e78004d020700c5
:104720000005be000006be006011b8004ff2070091
:10473000000178006000b8000200e000580032007c
:104740008e84440032f82f00828f540003003d0015
:104750002202200072428800510037000008200029
:10476000808f54000700340020022000704288002f
:104770000808a300450032000000200001f82f00c7
:10478000470037000900e0001b003d008904ea00f3
:1047900006003700922f2000530125000a00be00ba
:1047a000b20107000005be00ea845400e98f5400fe
:1047b000f8ff3c000600370002002000031224002e
:1047c0000a00be00a90107000005be008904e90037
:1047d0000900e000f8ff3a000a06be0002002000cf
:1047e000030820000a00be0020f207000000e000dd
:1047f00021003d001b0037000900e00007003a00df
:104800001d003700922f2000530125000a00be0032
:10481000400207000005be00ea845400e9cf5400be
:10482000f8ff3e00060037000200200003122400bb
:104830000a00be00370207000005be008904e90037
:104840000900e000f8ff3a000a06be00f2ff2f0060
:10485000f3f727000a00be00cb0107000000e000cc
:10486000050034000808a3000b00320000002000ff
:10487000010828000a0037000808a30001003200e0
:104880000df0a2000c00be00050037000000200063
:1048900001f8270002003700000020000108200076
:1048a0004f0778004f06be004f05be004f04be0004
:1048b000000006001dff37008000eb001bff3700e3
:1048c00080007800010078003041780003c2b30016
:1048d000834f5100faff3200e94f5100f8ff3200d8
:1048e000edc14100834f510003003a008000780081
:1048f00013c0b300050037008041eb00b4c2b30021
:10490000844f510001003a00800078000000eb0065
:10491000020037006a02b900040041003101fb00c7
:104920000203b100e90f5100faff36000304e00072
:10493000010032000000ea0000000600881f780035
:104940000004780038009000f1006000e18f500012
:1049500005003a000098a30008003200980090007b
:104960000100e00005003200380090000040a00087
:10497000300498000080eb001f0037000090a10079
:1049800030049800180090000000e0000600340099
:104990000000e90010049800980078001180fb00e6
:1049a000010ce80005003700380090000068a30003
:1049b000edff3a000800780011000700b8009000f1
:1049c0000178a3000c003a00fa0f500008003a00ea
:1049d000280090000000e000e3ff32001800900083
:1049e0000000e80010049800180ce900deff370012
:1049f000ed0f5000e3ff32004f0478000000060086
:104a00000200fa00889fbe008a1f78000004780028
:104a10000000eb0010049800b80090000080eb004c
:104a20000108a3003e003200800d21001004e000c8
:104a30000f003200ca0c2100c9fd2f008a844400f7
:104a4000390090002010b20021102000810f50008a
:104a500002003a000900780097000700ec84440047
:104a60008a8f5400f6ff3a00800d21000048eb00c9
:104a7000580190000200e0000e003a001204980075
:104a800012002000e880570048009000c8ee0700a0
:104a9000e10f500003003a008ff897000180fb00ff
:104aa0001f003700380090000040a000300498003c
:104ab00013003700a800900048009000bcee0700eb
:104ac000100498000000e00003003200e10f4000f5
:104ad0000d003a0003003700380090000040a000ad
:104ae00002003700380090000003b3003004980043
:104af00028009000000c78000000eb0010049800e3
:104b00000080eb0006003700a8009000010c780040
:104b10000000e900100498001180fb00010ce8007f
:104b20004f0578004f04be000080fa000000060028
:104b3000889fbe0001047800b80090008084eb00dc
:104b40000118a3003a003200180190000198a30058
:104b500002003a000200e00035003a000190a00097
:104b60003104980080047800f90fb2000200e000e0
:104b700002003a0028009000000c7800ea8f5400f0
:104b800005003a000178a30003003a00880078008d
:104b9000d0002000e6ff070018009000d800900029
:104ba000810f50000b0032000000e8001004980054
:104bb0001800780009487800000ce80011c0b30024
:104bc000800d210001487800ea8f540018003a0057
:104bd0000500370088007800094078006000070071
:104be0008004780012003700380090000088a3008d
:104bf0000f00320018019000a800900048009000bb
:104c0000a1ee070098009000810f500004003200d0
:104c1000380090000003b300300498008084eb005b
:104c20000000eb001004980028009000000c7800b1
:104c3000090078004f04be0000000600e10f4000ac
:104c40001c003200310190001220b200e10f51002f
:104c500015003a00210290000400e000120032002a
:104c600011019000d1019000830f5100100032001b
:104c700091017800848f510002003a008308e80017
:104c8000020037000201e800920098001101e900db
:104c900082087800b10090000168a30005003a0086
:104ca00000497800000006000080eb0000000600cc
:104cb0000080eb0000000600881f780000047800e8
:104cc000b8009000010078001020b200e10f500001
:104cd00005003a000000eb00100498002800900046
:104ce000000c7800180037002120b2000000eb0013
:104cf00022202000828f500017003a00a800900068
:104d00000100e00014003200180190000200e000f1
:104d100011003200480090005bee07009800900000
:104d2000810f500003003200380090000003b300f0
:104d3000300498000000eb00100498002800900058
:104d4000000c7800b80090000000eb000158a300b0
:104d5000010032000080eb004f04780000000600e4
:104d60000200fa00889fbe00a0ff9f0001047800a7
:104d7000380090000068a30033003a00e2006000b1
:104d800005003a000003b3003004980011049800b5
:104d90000080eb002e003700d80490000900e000ee
:104da00006003a0012002000e680570048009000fc
:104db00035ee07001904980023003700a800900082
:104dc0000100e00008003a00b10d21002104980024
:104dd000010c780021002000510498001104980073
:104de0000030a0003004980018019000a800900046
:104df0004800900024ee0700280090008080eb001f
:104e000011049800aff8970001487800000ce80002
:104e10002ff89700ea4f50000b003a00380090003e
:104e20000088a3000800320018019000a80090003c
:104e30004800900014ee07000000eb0010049800fa
:104e4000a8009000010c7800aff897000100fb006b
:104e50004f04be000080fa000000060000c0da0027
:104e60000000060000c0da0000000600889fbe00b7
:104e70008a9fbe008c1f780044f407009500330021
:104e800003866c006450e1002e0032006420e100d3
:104e9000330032006150e1002f0032006120e10058
:104ea0003100320085855500eb07b0000900200075
:104eb00008042000050037000804440089844c00e1
:104ec0000a0031000603430087834b0000015300b2
:104ed00081815b00f8ff33000203be000800a000e0
:104ee0000804440089844c00f6ff3900c639dd000f
:104ef0008301730001003200130020008904d100f7
:104f00000884d3000998a300050032000800a70018
:104f10000300a0008904d1000884d3008b05e800b9
:104f20008904d1000884d3000001eb000281d20083
:104f3000f0f3070001f0a1000cf0a70001f0a000c1
:104f40006d0037006420e1006f0032000801be00f0
:104f50000200be00f7ff37006120e1006a00320066
:104f60006000b800f3ff37000000200001f82700c0
:104f7000f0ff3700801feb0061f307008f87e90027
:104f80000000e00000000600f4ff2f00baf3370035
:104f90001400fa00889fbe008a9fbe008c9fbe004e
:104fa0000004be000205be00680047000a90be0073
:104fb0000890be0089f307000070a7000bf0a10065
:104fc0000bf8a30020003a009e0990000e09900003
:104fd000fe0090006e0090009e029000344320007e
:104fe00084825200fdef32000a003c00b4fc2f0026
:104ff0000428e100140034008301d1000281d300b1
:105000008180d3000080d3008502e800faff3a00d7
:10501000f2ef3700b40020000428e10007003c0054
:10502000000040008180480002014900838149005e
:105030008502e900faff3a00e8ef37000300280094
:1050400002002000010037006011b8006000b800c5
:10505000e2ef37004f89de0082017800a2013700bd
:105060001400fa00889fbe008a9fbe008c9fbe007d
:10507000040678000004be000205be006800470078
:105080000a90be000890be0054f307006200e100e1
:105090000800be000a01be00040020000b003a0018
:1050a0001e029000e43fb1006e009000fe009000f0
:1050b0000e0990009e099000f300b20005fe230047
:1050c000858171000bf0a70003f0a000040e7800aa
:1050d000c2ef37000200be006450e1000500360058
:1050e0006420e100020036000968a30001003a00d4
:1050f0000800be000160a0004f0678004f05be000a
:105100004f04be0000000600f0ff2f00f1ff270053
:10511000f9ff3700889fbe008a9fbe008c1f780071
:105120009af30700ebff330003866c006450e10044
:10513000240032006420e100270032006150e100c9
:10514000220032006120e100210032008b85420004
:10515000eb07b1000134b800003ab800080442007f
:1051600089844a00013ab8000030b80088804000c5
:1051700009014a000400330000004000818048001b
:10518000020149008b05e900c909dd0083017000b7
:105190000100320013002000c814de004814dd00b6
:1051a0004709de001200b200c808de000884700063
:1051b00050f3070001f0a1000cf0a70001f0a000df
:1051c000cdff37006120e100cfff32000801be00b3
:1051d0000200be00f7ff37006150e100fcff3a001b
:1051e000c9ff37006022b800060220000000d0008e
:1051f0008180d2000482d2008582d2000000a0000b
:105200000202520083825a0003003100020242006f
:1052100083824a000000a1000603e900f3ff3a0080
:1052200000000600020ab900001bb9000200b80025
:10523000810042008100430000000600889fbe00fc
:105240008a9fbe0030044200b0844a0030054b0003
:1052500090854b006000b1000898be000a90be0027
:105260000440e10005c8e10006d0e10007d8e100f4
:1052700002003100680040001008e8004f05be0041
:105280004f04be0000000600889fbe008a9fbe003b
:105290003004be002005be000418540005985c00d0
:1052a00006185d0007985d00110020000440e10031
:1052b00005c8e10006d0e10007d8e100010039008f
:1052c0008000eb00108810004f05be004f04be00a8
:1052d000000006001200fa00889fbe008a9fbe00f0
:1052e0008c9fbe00e0b79f00f1b79f0082bf9f0078
:1052f00093bf9f000605be000404be000000eb0043
:10530000d0b79f00c0b79f00b0b79f00a0b79f0065
:1053100090b79f000006eb005fb19700cfb09700f9
:10532000820141003fb097000200e00004003d0010
:10533000370007007e805700c0ff070003003700da
:10534000330007007e805700cfff0700dfb69700cd
:105350000d00e0000c0035006fb29700ffb297001f
:105360000fbb97009fbb970010002000010020009a
:105370006011b800000272008182720002037300a3
:10538000838373001b0007000c06e8000104200063
:10539000810f5600e0ff3a000d00e00004003d00e0
:1053a0000802be000a03be007e805700a3ff07006c
:1053b0005fa897000000e00005003a001fb29700c8
:1053c000afb297003fb39700cfb397000900070033
:1053d0006fb09700ffb097000fb997009fb9970083
:1053e0004f06be004f05be004f04be000080fa000d
:1053f000000006000100070000000600a4b79f009f
:10540000b5b79f00c6b79f00d7b79f000000060042
:105410004f09de0082817100b3b79f004f01de00ab
:105420008180400082807000a1b79f008fb09700fc
:105430004f09de00000040000200700090b79f009e
:105440007fa897004f01de008180400082807000bd
:1054500081b79f000d0007004f3ade0000004000ba
:1054600004007000f0af9f00080007000402420033
:1054700085824a0006034b0087834b00dfff07004d
:105480000802be000a03be00000006002fb297000b
:10549000bfb297004fb39700dfb39700000006003c
:1054a000881f780018002000881f780089ff0700f7
:1054b0008f87e9004f04780000000600801feb0092
:1054c00084ff07008f87e90000000600889fbe0068
:1054d0008a9fbe00e00f5000e08f5800e00f590097
:1054e000e08f59000c003d006044b8006055b800e2
:1054f0000000540081805c0002015d0083815d003a
:10550000180020001500070008003d0018000700e3
:105510000004eb00050037000004eb000f0007005b
:1055200002003d001200070018002000dcff070009
:105530000800e000060032006022b8006033b800c6
:105540000000520081805a0002015b0083815b00f1
:105550004f05be004f04be0000000600e00f5200e1
:10556000e08f5a00e00f5b00e08f5b000000060058
:105570006044b8006055b8000402540085825c00a5
:1055800006035d0087835d0000000600889fbe0063
:105590008a9fbe008c1f7800e00f5000e08f5800fb
:1055a000e00f5900e08f59000d003d006044b80045
:1055b0006055b8000000540081805c0002015d006d
:1055c00083815d001c0020000820e10009a8e100a3
:1055d0000ab0e1000bb8e1000d003d000800370003
:1055e0000006eb00e00f5200e08f5a00e00f5b0076
:1055f000e08f5b0006003d006044b8006055b800d5
:105600000402540085825c0006035d0087835d0010
:10561000aaff07000c00e000060032006022b8007c
:105620006033b8000000520081805a0002015b0024
:1056300083815b004f0678004f05be004f04be001b
:1056400000000600889fbe008a9fbe008c1f780065
:105650000006eb00e00f5000e08f5800e00f59000b
:10566000e08f590007003d006044b8006055b80065
:105670000000540081805c0002015d0083815d00b8
:105680001c002000e00f5200e08f5a00e00f5b008a
:10569000e08f5b0007003d006044b8006055b80033
:1056a0000402540085825c0006035d0087835d0070
:1056b0000c00a2004b0007000c00e00006003200c6
:1056c0006022b8006033b8000000520081805a00a8
:1056d00002015b0083815b004f0678004f05be002e
:1056e0004f04be0000000600881f78000304780005
:1056f0000300e00007003d0060001000e08018009b
:1057000060011900e081190002003b0001f02d004a
:10571000030037000400070008f0a70001f0a00014
:105720004f04780000000600889fbe008a9fbe00dc
:1057300000827000040271000482710026003200b1
:105740000004be000200be006011b8006b0920001a
:10575000950220000182cf000a0039000541b10006
:105760000082cf00070039000541b1000982cf0057
:10577000040039000541b1000882cf000100390062
:105780000541b10005425200120032000a003b0000
:1057900082817100610164008100d1000080d3002a
:1057a0008984d3000884d3008b05e8000442e80014
:1057b000f7ff3a00070037000804440089844c00d2
:1057c00000004800818048008b05e9000442e900a0
:1057d000f9ff3a00c7f107004f05be004f04be00b5
:1057e00000000600889fbe008a9fbe008c9fbe00fe
:1057f0000404b8000506b8008904460060854e0020
:105800000606b8000a054600e0854e000706b80007
:105810008b054600040eb800890446000a854e0038
:10582000e0854d00050eb8000a0546008b854e0048
:10583000060eb8008b0546000416b8000a0546009f
:105840008b854e000516b8008b054600041eb80077
:105850008b0546000800be000a01be004f06be00d0
:0c5860004f05be004f04be000000060013
:020000040000fa
:10586c00496e000069740000696100006c690000f9
:10587c007a6900006e670000003200000a25000003
:10588c006c6600002c2500006c6600000a0d000000
:10589c000025000073250000640d00000077000057
:1058ac0061790000706f0000696e00007473000075
:1058bc00206c00006f6300006b650000640000004a
:1058cc0072650000616300006865000064200000e0
:1058dc0025640000004100005252000049560000af
:1058ec004544000021210000210000002b4900004c
:1058fc0050440000002500006c6600002c250000c0
:10590c006c660000002500006c660000002b000097
:10591c004347000050530000494e0000464f000022
:04592c003a0000003d
:020000040000fa
:105930000800fa0020079800310798000000eb00eb
:10594000000f78000b0037000000eb0010079800f4
:10595000030037001e0090000000e80010079800c8
:105960009e009000703e2000808f5000f9ff3400b0
:105970001e0fe8001e0078006101b9002e009000a3
:10598000be009000800f5100818f5900eeff35005e
:105990000080fa00000006009600fa00889fbe0012
:1059a0008a9fbe00f000200000168800c182a90076
:1059b000cc22a900cc42a900cc62a900cc82a900cb
:1059c000000120009016880080002000c01688008a
:1059d000d8e2a9002a03a8002a23a8002a43a80085
:1059e0002a63a8002a83a8002be3a8002b03a800a1
:1059f0002bc3a8002b83a800d882a9002b83a80062
:105a00002b63a8002bc3a8002b03a80000022000d2
:105a100050198800c1a2a800dc02a900dcc2a900bc
:105a20001b0e0700203a80000080a1000090a1001a
:105a300000a0a100203a8800203a80000060a10068
:105a40000070a100203a8800213a800000fe2f005b
:105a500000806000203a880060002000303a880012
:105a600000000000113a8000000220000080600069
:105a70000000e000fbff320040a7a9003e28ef0035
:105a80009202070060c32a005c0207007b0807003f
:105a90004006200001002000a5ff070090ee200036
:105aa000950807008038210001002000a0ff0700b2
:105ab00050ef2000900807008038210001002000ee
